S01200004272696768746E6573732E73726563F9
S11300000C9434000C943E000C943E000C943E007E
S11300100C943E000C943E000C943E000C943E0064
S11300200C943E000C943E000C943E000C943E0054
S11300300C943E000C943E000C943E000C943E0044
S11300400C943E000C943E000C943E000C943E0034
S11300500C943E000C943E000C943E000C943E0024
S11300600C943E000C943E0011241FBECFEFD8E048
S1130070DEBFCDBF0E944E000C9452000C940000D1
S113008080E88093B300E0EBF0E0808183688083B4
S1130090E1EBF0E080818A6080830895239A0E94D6
S10B00A04000FFCFF894FFCFEC
S9030000FC
